:020000006B286B
:1000060083120313F101F2012A087202031D0D285F
:10001600290871020318152800000000F10A0319C7
:06002600F20A07280800A1
:0E002C008312031326088A00250882000800AC
:0E003A00123083120313FD00FD0B2128080075
:100048008312031308152708A9002808AA0003200B
:10005800081127082302A9002808031C013E2402CE
:06006800AA0003200800BD
:10006E0016208A110A128000840AA50A0319A60A0C
:08007E00F003031D3728080000
:10008600831203139F01C0309F042209F0007008F9
:1000960083169F051F179F1783122708F000F00D80
:1000A6007010F00D7010F00D701070089F041F1482
:1000B6001D201F151F1D612800005D281F101E082A
:1000C600F100F00183161E08F0040030F104080068
:1000D6008C20013083160313850088018312A70143
:1000E600432070088312A0007108A100081488102C
:0E00F6007008A7007108A80024207128812836
:1001180020308400053083120313F0008730A500D7
:080128000030A600372008009A
:04010E000034003485
:020112000F34A8
:04011400FF3403347D
:02400E007A3BFB
:00000001FF
