:02000000B02D21
:0C000600000000000000000000000800E6
:0E001200533083120313FD00FD0B0D28080070
:10002000243083120313FC00B530FD00FD0B1628AD
:0A003000FC0B162800000000080079
:0E003A00F201F101F001F801F30100300800BD
:1000480083120313F801F9011030FC00710DF80D4B
:10005800F90D7408F8027508031C750FF9020318E6
:100068003C287408F80775080318750FF90703107A
:0A007800F00DF10DFC0B2A28080022
:1000820083120313EF1B47288813482888176F1B16
:100092004C2808134D280817EF1A512888125228A5
:1000A20088166F1A56280812572808165A185B28FD
:1000B20008155C280811881503208811EF19632898
:1000C2008813642888176F19682808136928081785
:1000D200EF186D2888126E2888166F187228081279
:1000E200732808165A1877280815782808118815D1
:1000F200032088115A1C7F2810208028092008001C
:100102007B15FB1F8B280130F300F201F101F00196
:08011200FA0DF20CFF300800A9
:08011A00FA1FF2130030080087
:100122007408F8027508031C750FF9027608031C9F
:10013200760FFA027708031C770FFB02F30D0730E4
:10014200FC00730DF80DF90DFA0DFB0D7408731C0C
:10015200B828F8027508031C750FF9027608031C0B
:10016200760FFA027708031C770FFB02C528F807FF
:1001720075080318750FF90776080318760FFA0742
:1001820077080318770FFB07F30DFC0BA228720DFB
:10019200F80DF90DFA0DFB0D7408731CDE28F80238
:1001A2007508031C750FF9027608031C760FFA0214
:1001B2007708031C770FFB02EB28F8077508031872
:1001C200750FF90776080318760FFA0777080318F0
:1001D200770FFB07F20D0730FC00720DF80DF90DD9
:1001E200FA0DFB0D7408721C0429F8027508031C31
:1001F200750FF9027608031C760FFA027708031CC2
:10020200770FFB021129F80775080318750FF90714
:1002120076080318760FFA0777080318770FFB079B
:10022200F20DFC0BEE28710DF80DF90DFA0DFB0D18
:100232007408721C2A29F8027508031C750FF9024A
:100242007608031C760FFA027708031C770FFB026D
:100252003729F80775080318750FF9077608031888
:10026200760FFA0777080318770FFB07F10D0730AF
:10027200FC00710DF80DF90DFA0DFB0D7408711CDF
:100282005029F8027508031C750FF9027608031C41
:10029200760FFA027708031C770FFB025D29F80735
:1002A20075080318750FF90776080318760FFA0711
:1002B20077080318770FFB07F10DFC0B3A29700D35
:1002C200F80DF90DFA0DFB0D7408711C7629F80270
:1002D2007508031C750FF9027608031C760FFA02E3
:1002E2007708031C770FFB028329F80775080318A8
:1002F200750FF90776080318760FFA0777080318BF
:10030200770FFB07F00D0730FC00700DF80DF90DAB
:10031200FA0DFB0D7408701C9C29F8027508031C69
:10032200750FF9027608031C760FFA027708031C90
:10033200770FFB02A929F80775080318750FF9074B
:1003420076080318760FFA0777080318770FFB076A
:10035200F00DFC0B86297018BC297408F807750883
:100362000318750FF90776080318760FFA0777084E
:080372000318770FFB070800D8
:10037A0083120313F101F2016B087202031DC729EC
:10038A006A0871020318D229000000000000000068
:0C039A000000F10A0319F20AC129080052
:1003A600243083120313FD00FD0BD729000008003B
:1003B600831203135A106A08EF0041205A140800EA
:0E03C6008312031354088A00530882000800B3
:1003D40083120313ED0105306D020318F8296D082B
:1003E4006C07840020308000ED0AED296D086C074D
:1003F40084008001ED036D086C07EE000A30F40000
:10040400F5016A08F0006B08F10024207808F00078
:100414007908F1003030F0076E088400700880001D
:100424000A30F400F5016A08F0006B08F10024209A
:100434007008EA007108EB0000307106031D242ADD
:1004440000307006031D272A292AED03FD29080020
:100454007B14FB1F352AF201FA1FFF30F200F10072
:0A046400F000FA0DF20CFF30080062
:10046E00A1017208031D4C2A7108F2007008F100F8
:10047E00F001A1157208031D4C2A7108F200F1015A
:10048E00A1112116720803195A2A2108F302031D1D
:10049E00031C5E2A0310F21B622AF00DF10DF20D01
:1004AE00F30B522A5E2A0130FC001D20652A023011
:0E04BE00FC008120652A0430FC008D2008001F
:1004CC00FB14FB1F702AFF30F300F200F100F00068
:0804DC00FA0DF20CFF300800DC
:1004E400FB09FA09F909F809F80A0319F90A0319C1
:0804F400FA0A0319FB0A0800D3
:1004FC00831203137008F8007108F000F101F20187
:10050C00F301FB01FC019630F300FA017008F100D5
:0C051C007808F000F801F2013722080016
:1005280083120313E601E7016108E8006208E900A5
:1005380080306206F00080307002031DA52A00306A
:1005480061020318B32A0130E6000030E7006108B1
:10055800003CE8006208031C013EE901E902680862
:10056800EA006908EB006308EC00EA210630E400C1
:100578000030E5006508003C031DC42A6408003CFF
:100588000318DF2A64086307F20001306402F000F0
:100598000030031C013E6502F10070086307840007
:1005A8000008F00072088400700880000130E4023E
:1005B800031CE503BE2A6308840020308000660817
:1005C80067040319FD2AE401E50164086307840050
:1005D8000008203A031DF42AE40A0319E50AE92A67
:1005E8000130E402031CE5036408630784002D302E
:0405F8008000080077
:1005FC0083120313FB017308031D77080319552B92
:10060C0072087606FA007708F3077E30031C122B6B
:10061C00F3020318582B152BF302031C5B2B7208E7
:10062C00F8007108FC007008FD00F817F6170310AD
:10063C00F201F101F0011830A1007D1C2F2B740880
:10064C00F00775080318750FF10776080318760F75
:10065C00F207F20CF10CF00CF80CFC0CFD0C031076
:10066C00A10B232BF21B3F2BF80DF00DF10DF20D0E
:10067C00F3037B1B701C512BF81F512BF00A031931
:10068C00F10A0319F20A031D512BF20CF10CF00CB8
:10069C00F30A0319582BFA1FF21300305D2B0130AB
:1006AC001D205D2B023066225D2B04308120000062
:0206BC00080034
:1006BE00831203139F01C0309F043709F0007008A6
:1006CE0083169F051F179F1783126108F000F00D08
:1006DE007010F00D7010F00D701070089F041F1444
:1006EE00D3211F151F1D7D2B0000792B1F101E08F7
:1006FE00F100F00183161E08F0040030F10408002A
:10070E0083120313E20162086107840000080319D3
:10071E00982B6208610784000008EA00DB21E20AD8
:04072E008A2B08000A
:1007320083120313FB01FA01F9018030F800F10C76
:10074200F00C031CAD2B7408F90775080318750F1C
:10075200FA070318FB0A0310F01FB52B7408FA07F7
:1007620075080318750FFB07FB0CFA0CF90CF80C53
:10077200031CA02B7B08F3007A08F2007908F10031
:060782007808F0000800F9
:10078800E3218A110A128000840AD30A0319D40AC1
:08079800F003031DC42B08004F
:1007A000831203137408003A031DEB2B7508003AFB
:1007B000031DEB2B7608003A031DEB2B7708003A5C
:1007C000031DEB2BFF30F000FF30F100FF30F20093
:1007D0007F30F300842C83120313FC01F71BFC0A07
:1007E000FD01FB01FA01F901F801730872047104BB
:1007F000700403197F2C73087706A000A01BFD0965
:10080000F71F0D2CF409F509F609F709F40A031985
:10081000F50A0319F60A0319F70AF31F1A2CF0094F
:10082000F109F209F309F00A0319F10A0319F20AAE
:100830000319F30A73087704A000A01B3B2C912036
:10084000FC1B582CFD1F7F2CF009F109F209F3095C
:10085000F00A0319F10A0319F20A0319F30AF80955
:10086000F909FA09FB09F80A0319F90A0319FA0A3E
:100870000319FB0A7F2CF71F522CF31B4C2C730817
:10088000FB007208FA007108F9007008F800F30123
:10089000F201F101F001222CF301F201F101F0016A
:1008A000F00A0034F309F209F109F009FC171F2CD2
:1008B000F80A0319F90A0319FA0A0319FB0A74085A
:1008C0007802031D222C75087902031D222C76085C
:1008D0007A02031D222C77087B02031D222CFB01C8
:1008E000FA01F901F801F00A0319F10A0319F20AF1
:1008F0000319F30AF31F222CA0012016FF34A001D4
:0A0900007C1C832C7222003E0800CC
:10090A008312031307156108EA006208EB00BD2190
:10091A00071161082202EA006208031C013E230251
:06092A00EB00BD210800F6
:1009300083120313FB01FC01F80173080319102D46
:100940007208FA00F2179E30F302F31F002DF3092C
:10095000F30A08307302031CD52CF300F80D70085D
:10096000F8007108F0007208F100F201083073021B
:10097000031CD52CF300F80D7008F8007108F00086
:10098000F10108307302031CD52CF300F80D700838
:10099000F800F00108307302031CD52CF300F80DA9
:1009A000F8017308031D0310DF2C73080319DF2CF3
:1009B0000310F20CF10CF00CF80CF30BD82C7B1B91
:1009C000781CED2C031CED2CF80A0319F00A03190E
:1009D000F10A0319F20AF21B0D2DFA1F102DF2096C
:1009E000F109F009F809F80A0319F00A0319F10AE4
:1009F0000319F20A102DF201F101F001F801102D96
:100A00007B14FB1F132DF201FA1F132DF200F100CE
:100A1000F000F800FA0DF20C132D0130FC00152D3A
:100A20000030FC00152DFF30FC00FC080319192DC7
:100A30002A227208F3007108F2007008F1007808A9
:040A4000F0000800BA
:100A4400342D803083120313E100472DC030E100C0
:100A5400472D9430E100472DD430E100472D8030FC
:100A6400E100472D831203136108013A0319232D72
:100A74006108023A0319282D6108033A03192B2D42
:100A84006108043A03192E2D312D6203F000610828
:100A9400F0077008E1007008EF0041205A10E401EB
:100AA40064086307840000080319602D6408630761
:100AB40084000008EA00DB21E40A522D5A140800DD
:100AC4008316031388110811081288120813881357
:100AD4008312881108118813081388120812102031
:100AE400102010208816081688150320881110205D
:100AF40088150320881110208815032088111020E0
:100B040008128815032088111020881503208811E5
:100B14008812881788150320881110208813081656
:100B240088150320881108128815032088111020C5
:100B340088150320881108168815032088111020B1
:100B440008128815032088118817081788160816B4
:0C0B540088150320881110205A14080096
:100B60006C260130831603138500870188018030CD
:100B70009F008B0162250C30EF0041200130EF0017
:100B800041203830DF004530E0000130E100013025
:100B9000E2005F08E30022250230E1000130E200BC
:100BA0006008E30022253330FB00BB30FC00DF305F
:100BB000FD00FD0BD92DFC0BD92DFB0BD92D000011
:100BC0000000E1015F2370088312C3007108C400B4
:100BD0007E22F630F4002830F5001C30F60081301B
:100BE000F700FE2298247008DB007108DC00720810
:100BF000DD007308DE000A30F400F501F601F701AC
:100C0000D0237008DB007108DC007208DD00730877
:100C1000DE007008E1007108E2005530E300942224
:100C20000130EF0041200130E1000130E2002430CA
:100C3000E30022250230E1000130E2003130E30020
:100C400022255530E1008723071487104308F00060
:100C50004408F1000A30F4000030F50099237008D0
:0C0C6000E1007108E2008524E12D352E32
:100CD80022308400313083120313F0003B30D300FC
:080CE8000630D400C42308000B
:040C7600FF34033410
:100C7A00543465346D347034653472346134743488
:0A0C8A007534723465343A340034D6
:0C0C940049346E34203443343D340034C5
:020CA0000F340F
:100CA200543465346D3470342034623461347334B6
:060CB200653464340034D7
:040CB80000340034D0
:100CBC00463461346E3420342D34203443346F3454
:0C0CCC006E34743472346F346C340034B5
:02400E007A3BFB
:00000001FF
