:020000002A28AC
:0E0006008312031323088A00220882000800D8
:1000140003208A110A128000840AA20A0319A30A7F
:08002400F003031D0A28080087
:0A002C008312031307148710080065
:0A003600831203130710871008005F
:0A004000831203130713871308004F
:0A004A008312031307178713080041
:1000540083120313A001A1018316870103308600D4
:100064008B01831206185128861851282008003A5B
:10007400031D51282108003A031D51281620202071
:10008400061C5028861850282008003A031D5028C2
:100094002108003A031D50280130A0003328061C13
:1000A4006D2886186D282008013A031D6D28210843
:1000B400003A031D6D2816202020061C6C28861C7F
:1000C4006C282008013A031D6C282108003A031DFE
:1000D4006C28A0015128061C8A28861C8A2820081E
:1000E400003A031D8A282108003A031D8A28252086
:1000F4001B20061C8928861889282008003A031D1D
:1001040089282108003A031D89280130A1006D289F
:10011400061CA6288618A6282008003A031DA6282F
:100124002108013A031DA62825201B200618A5280E
:100134008618A5282008003A031DA5282108013A9D
:0C014400031DA528A1018A283328A72844
:02400E007A3BFB
:00000001FF
